:020000040800F2
:10000000600600206D0100087501000877010008F6
:10001000790100087B0100087D0100080000000054
:100020000000000000000000000000007F01000848
:10003000810100080000000083010008850100081C
:100040008701000887010008870100088701000870
:100050008701000887010008870100088701000860
:100060008701000887010008870100088701000850
:100070008701000887010008870100088701000840
:100080008701000887010008870100088701000830
:100090008701000887010008870100088701000820
:1000A0008701000887010008870100088701000810
:1000B0008701000887010008000000008701000890
:1000C0008701000800000000000000008701000810
:1000D0000000000087010008870100080000000000
:1000E00087010008870100088701000800F002F876
:1000F00000F02CF80AA090E8000C82448344AAF196
:100100000107DA4501D100F021F8AFF2090EBAE893
:100110000F0013F0010F18BFFB1A43F0010318473B
:100120007003000080030000002300240025002647
:10013000103A28BF78C1FBD8520728BF30C148BF4A
:100140000B6070471FB51FBD10B510BD00F069F9F9
:100150001146FFF7F7FF00F02AF800F087F903B423
:10016000FFF7F2FF03BC00F08BF90000094880475D
:1001700009480047FEE7FEE7FEE7FEE7FEE7FEE789
:10018000FEE7FEE7FEE7FEE704480549054A064BA1
:1001900070470000AD010008ED000008600000207D
:1001A000600600206002002060020020704700F01E
:1001B000EEF81948194908604FF03330091F0860FC
:1001C00000F030F826E016480068462805D100F017
:1001D00033F80020124908601CE0114800684228EA
:1001E00005D100F03BF800200D49086012E00C48F2
:1001F0000068522805D100F043F800200849086043
:1002000008E0074800684C2804D100F04BF80020B3
:1002100003490860D7E70000333433330408014052
:100220000438014010B50421274800F0A4F8052146
:10023000254800F0A0F810BD10B50021224800F0BC
:100240009AF80121204800F09CF80B211E4800F08C
:1002500098F80C211C4800F08EF810BD10B5002154
:10026000194800F08EF80121174800F084F80B219E
:10027000154800F080F80C21134800F082F810BDFA
:1002800010B50021104800F07CF801210E4800F064
:1002900078F80C210C4800F06EF80B210A4800F0A9
:1002A00070F810BD10B50021074800F064F8012176
:1002B000054800F066F80B21034800F062F80C21B5
:1002C000014800F05EF810BD000801400146002220
:1002D0004948814206D14948806940F00400474BB3
:1002E00098613AE04648814206D14448806940F02E
:1002F0000800424B986130E04248814206D13F48B5
:10030000806940F010003D4B986126E03E488142F4
:1003100006D13A48806940F02000384B98611CE0D3
:100320003A48814206D13548806940F04000334B5D
:10033000986112E03648814206D13048806940F029
:1003400080002E4B986108E03248814205D12B484D
:10035000806940F48070294B986101220AB1012024
:1003600070470020FCE7C2680A43C2607047C26859
:100370000A43C260704701238B40C2681A43C260BF
:10038000704701238B40C2689A43C260704744F2B1
:1003900005001A4988612048006840F400501E4951
:1003A00008600846006820F480500860081D006856
:1003B00020F44050091D0860081D006820F08000EE
:1003C000091D086040F241301349091F0860081DEB
:1003D000006840F00C00091D08600748001D006817
:1003E00040F0B0000449091D08600846006840F468
:1003F0008060086070470000000801400010024063
:10040000000C0140001001400014014000180140A0
:10041000001C0140002001400C380140704770472B
:100420007047754600F028F8AE4605006946534609
:1004300020F00700854618B020B5FFF7A5FEBDE8FF
:1004400020404FF000064FF000074FF000084FF03B
:10045000000B21F00701AC46ACE8C009ACE8C009CC
:10046000ACE8C009ACE8C0098D4670470446AFF35C
:1004700000802046FFF773FE004870470000002010
:1004800001491820ABBEFEE72600020070470000BD
:10049000A0040008000000206006000028010008F9
:040000050800016D81
:00000001FF
